{
  "_format": "hh-sol-artifact-1",
  "contractName": "MyEpicNFT",
  "sourceName": "contracts/MyEpicNFT.sol",
  "abi": [
    {
      "inputs": [],
      "stateMutability": "nonpayable",
      "type": "constructor"
    },
    {
      "anonymous": false,
      "inputs": [
        {
          "indexed": true,
          "internalType": "address",
          "name": "owner",
          "type": "address"
        },
        {
          "indexed": true,
          "internalType": "address",
          "name": "approved",
          "type": "address"
        },
        {
          "indexed": true,
          "internalType": "uint256",
          "name": "tokenId",
          "type": "uint256"
        }
      ],
      "name": "Approval",
      "type": "event"
    },
    {
      "anonymous": false,
      "inputs": [
        {
          "indexed": true,
          "internalType": "address",
          "name": "owner",
          "type": "address"
        },
        {
          "indexed": true,
          "internalType": "address",
          "name": "operator",
          "type": "address"
        },
        {
          "indexed": false,
          "internalType": "bool",
          "name": "approved",
          "type": "bool"
        }
      ],
      "name": "ApprovalForAll",
      "type": "event"
    },
    {
      "anonymous": false,
      "inputs": [
        {
          "indexed": false,
          "internalType": "address",
          "name": "sender",
          "type": "address"
        },
        {
          "indexed": false,
          "internalType": "uint256",
          "name": "tokenId",
          "type": "uint256"
        }
      ],
      "name": "NewEpicNFTMinted",
      "type": "event"
    },
    {
      "anonymous": false,
      "inputs": [
        {
          "indexed": true,
          "internalType": "address",
          "name": "from",
          "type": "address"
        },
        {
          "indexed": true,
          "internalType": "address",
          "name": "to",
          "type": "address"
        },
        {
          "indexed": true,
          "internalType": "uint256",
          "name": "tokenId",
          "type": "uint256"
        }
      ],
      "name": "Transfer",
      "type": "event"
    },
    {
      "inputs": [
        {
          "internalType": "address",
          "name": "to",
          "type": "address"
        },
        {
          "internalType": "uint256",
          "name": "tokenId",
          "type": "uint256"
        }
      ],
      "name": "approve",
      "outputs": [],
      "stateMutability": "nonpayable",
      "type": "function"
    },
    {
      "inputs": [
        {
          "internalType": "address",
          "name": "owner",
          "type": "address"
        }
      ],
      "name": "balanceOf",
      "outputs": [
        {
          "internalType": "uint256",
          "name": "",
          "type": "uint256"
        }
      ],
      "stateMutability": "view",
      "type": "function"
    },
    {
      "inputs": [
        {
          "internalType": "uint256",
          "name": "tokenId",
          "type": "uint256"
        }
      ],
      "name": "getApproved",
      "outputs": [
        {
          "internalType": "address",
          "name": "",
          "type": "address"
        }
      ],
      "stateMutability": "view",
      "type": "function"
    },
    {
      "inputs": [],
      "name": "getTokenCount",
      "outputs": [
        {
          "internalType": "uint256",
          "name": "",
          "type": "uint256"
        }
      ],
      "stateMutability": "view",
      "type": "function"
    },
    {
      "inputs": [
        {
          "internalType": "address",
          "name": "owner",
          "type": "address"
        },
        {
          "internalType": "address",
          "name": "operator",
          "type": "address"
        }
      ],
      "name": "isApprovedForAll",
      "outputs": [
        {
          "internalType": "bool",
          "name": "",
          "type": "bool"
        }
      ],
      "stateMutability": "view",
      "type": "function"
    },
    {
      "inputs": [],
      "name": "makeAnEpicNFT",
      "outputs": [],
      "stateMutability": "nonpayable",
      "type": "function"
    },
    {
      "inputs": [],
      "name": "name",
      "outputs": [
        {
          "internalType": "string",
          "name": "",
          "type": "string"
        }
      ],
      "stateMutability": "view",
      "type": "function"
    },
    {
      "inputs": [
        {
          "internalType": "uint256",
          "name": "tokenId",
          "type": "uint256"
        }
      ],
      "name": "ownerOf",
      "outputs": [
        {
          "internalType": "address",
          "name": "",
          "type": "address"
        }
      ],
      "stateMutability": "view",
      "type": "function"
    },
    {
      "inputs": [
        {
          "internalType": "uint256",
          "name": "tokenId",
          "type": "uint256"
        }
      ],
      "name": "pickRandomColor",
      "outputs": [
        {
          "internalType": "string",
          "name": "",
          "type": "string"
        }
      ],
      "stateMutability": "view",
      "type": "function"
    },
    {
      "inputs": [
        {
          "internalType": "uint256",
          "name": "tokenId",
          "type": "uint256"
        }
      ],
      "name": "pickRandomFirstWord",
      "outputs": [
        {
          "internalType": "string",
          "name": "",
          "type": "string"
        }
      ],
      "stateMutability": "view",
      "type": "function"
    },
    {
      "inputs": [
        {
          "internalType": "uint256",
          "name": "tokenId",
          "type": "uint256"
        }
      ],
      "name": "pickRandomSecondWord",
      "outputs": [
        {
          "internalType": "string",
          "name": "",
          "type": "string"
        }
      ],
      "stateMutability": "view",
      "type": "function"
    },
    {
      "inputs": [
        {
          "internalType": "uint256",
          "name": "tokenId",
          "type": "uint256"
        }
      ],
      "name": "pickRandomThirdWord",
      "outputs": [
        {
          "internalType": "string",
          "name": "",
          "type": "string"
        }
      ],
      "stateMutability": "view",
      "type": "function"
    },
    {
      "inputs": [
        {
          "internalType": "address",
          "name": "from",
          "type": "address"
        },
        {
          "internalType": "address",
          "name": "to",
          "type": "address"
        },
        {
          "internalType": "uint256",
          "name": "tokenId",
          "type": "uint256"
        }
      ],
      "name": "safeTransferFrom",
      "outputs": [],
      "stateMutability": "nonpayable",
      "type": "function"
    },
    {
      "inputs": [
        {
          "internalType": "address",
          "name": "from",
          "type": "address"
        },
        {
          "internalType": "address",
          "name": "to",
          "type": "address"
        },
        {
          "internalType": "uint256",
          "name": "tokenId",
          "type": "uint256"
        },
        {
          "internalType": "bytes",
          "name": "_data",
          "type": "bytes"
        }
      ],
      "name": "safeTransferFrom",
      "outputs": [],
      "stateMutability": "nonpayable",
      "type": "function"
    },
    {
      "inputs": [
        {
          "internalType": "address",
          "name": "operator",
          "type": "address"
        },
        {
          "internalType": "bool",
          "name": "approved",
          "type": "bool"
        }
      ],
      "name": "setApprovalForAll",
      "outputs": [],
      "stateMutability": "nonpayable",
      "type": "function"
    },
    {
      "inputs": [
        {
          "internalType": "bytes4",
          "name": "interfaceId",
          "type": "bytes4"
        }
      ],
      "name": "supportsInterface",
      "outputs": [
        {
          "internalType": "bool",
          "name": "",
          "type": "bool"
        }
      ],
      "stateMutability": "view",
      "type": "function"
    },
    {
      "inputs": [],
      "name": "symbol",
      "outputs": [
        {
          "internalType": "string",
          "name": "",
          "type": "string"
        }
      ],
      "stateMutability": "view",
      "type": "function"
    },
    {
      "inputs": [
        {
          "internalType": "uint256",
          "name": "tokenId",
          "type": "uint256"
        }
      ],
      "name": "tokenURI",
      "outputs": [
        {
          "internalType": "string",
          "name": "",
          "type": "string"
        }
      ],
      "stateMutability": "view",
      "type": "function"
    },
    {
      "inputs": [
        {
          "internalType": "address",
          "name": "from",
          "type": "address"
        },
        {
          "internalType": "address",
          "name": "to",
          "type": "address"
        },
        {
          "internalType": "uint256",
          "name": "tokenId",
          "type": "uint256"
        }
      ],
      "name": "transferFrom",
      "outputs": [],
      "stateMutability": "nonpayable",
      "type": "function"
    }
  ],
  "bytecode": "0x608060405260405180610100016040528060d381526020016200494960d39139600890805190602001906200003692919062000b2f565b5060405180608001604052806056815260200162004a1c60569139600990805190602001906200006892919062000b2f565b506040518061012001604052806040518060400160405280600581526020017f4c7566667900000000000000000000000000000000000000000000000000000081525081526020016040518060400160405280600481526020017f5a6f726f0000000000000000000000000000000000000000000000000000000081525081526020016040518060400160405280600581526020017f53616e6a6900000000000000000000000000000000000000000000000000000081525081526020016040518060400160405280600681526020017f4672616e6b79000000000000000000000000000000000000000000000000000081525081526020016040518060400160405280600481526020017f4e616d690000000000000000000000000000000000000000000000000000000081525081526020016040518060400160405280600781526020017f43686f707065720000000000000000000000000000000000000000000000000081525081526020016040518060400160405280600481526020017f4e69636f0000000000000000000000000000000000000000000000000000000081525081526020016040518060400160405280600581526020017f55736f707000000000000000000000000000000000000000000000000000000081525081526020016040518060400160405280600681526020017f4a696d6265690000000000000000000000000000000000000000000000000000815250815250600a9060096200029892919062000bc0565b506040518061014001604052806040518060400160405280600681526020017f5069636b6c65000000000000000000000000000000000000000000000000000081525081526020016040518060400160405280600981526020017f48616d627572676572000000000000000000000000000000000000000000000081525081526020016040518060400160405280600581526020017f4f6e696f6e00000000000000000000000000000000000000000000000000000081525081526020016040518060400160405280600781526020017f436869636b656e0000000000000000000000000000000000000000000000000081525081526020016040518060400160405280600581526020017f537465616b00000000000000000000000000000000000000000000000000000081525081526020016040518060400160405280600681526020017f53616c6d6f6e000000000000000000000000000000000000000000000000000081525081526020016040518060400160405280600981526020017f53776f726466697368000000000000000000000000000000000000000000000081525081526020016040518060400160405280600881526020017f437261776669736800000000000000000000000000000000000000000000000081525081526020016040518060400160405280600481526020017f46726f670000000000000000000000000000000000000000000000000000000081525081526020016040518060400160405280600981526020017f5370616768657474690000000000000000000000000000000000000000000000815250815250600b90600a6200050392919062000c27565b506040518061014001604052806040518060400160405280600481526020017f43616b650000000000000000000000000000000000000000000000000000000081525081526020016040518060400160405280600381526020017f506965000000000000000000000000000000000000000000000000000000000081525081526020016040518060400160405280600381526020017f42756e000000000000000000000000000000000000000000000000000000000081525081526020016040518060400160405280600581526020017f427265616400000000000000000000000000000000000000000000000000000081525081526020016040518060400160405280600681526020017f4d6f75737365000000000000000000000000000000000000000000000000000081525081526020016040518060400160405280600681526020017f48756d6d7573000000000000000000000000000000000000000000000000000081525081526020016040518060400160405280600881526020017f536865726265727400000000000000000000000000000000000000000000000081525081526020016040518060400160405280600781526020017f506172666169740000000000000000000000000000000000000000000000000081525081526020016040518060400160405280600881526020017f536d6f6f7468696500000000000000000000000000000000000000000000000081525081526020016040518060400160405280600581526020017f50756e6368000000000000000000000000000000000000000000000000000000815250815250600c90600a6200076e92919062000c27565b506040518061010001604052806040518060400160405280600581526020017f626c61636b00000000000000000000000000000000000000000000000000000081525081526020016040518060400160405280600481526020017f677261790000000000000000000000000000000000000000000000000000000081525081526020016040518060400160405280600781526020017f234631433541450000000000000000000000000000000000000000000000000081525081526020016040518060400160405280600781526020017f234543444444300000000000000000000000000000000000000000000000000081525081526020016040518060400160405280600781526020017f234345443243320000000000000000000000000000000000000000000000000081525081526020016040518060400160405280600781526020017f233932423142360000000000000000000000000000000000000000000000000081525081526020016040518060400160405280600781526020017f233335343535440000000000000000000000000000000000000000000000000081525081526020016040518060400160405280600781526020017f2338464431444600000000000000000000000000000000000000000000000000815250815250600d9060086200096392919062000c8e565b503480156200097157600080fd5b506040518060400160405280600981526020017f5371756172654e465400000000000000000000000000000000000000000000008152506040518060400160405280600681526020017f53515541524500000000000000000000000000000000000000000000000000008152508160009080519060200190620009f692919062000b2f565b50806001908051906020019062000a0f92919062000b2f565b50505062000a5d6040518060400160405280601e81526020017f54686973206973206d79204e465420636f6e74726163742e20576f616821000081525062000a6360201b620013cf1760201c565b62000eaf565b62000b038160405160240162000a7a919062000dc3565b6040516020818303038152906040527f41304fac000000000000000000000000000000000000000000000000000000007bffffffffffffffffffffffffffffffffffffffffffffffffffffffff19166020820180517bffffffffffffffffffffffffffffffffffffffffffffffffffffffff838183161783525050505062000b0660201b60201c565b50565b60008151905060006a636f6e736f6c652e6c6f679050602083016000808483855afa5050505050565b82805462000b3d9062000e39565b90600052602060002090601f01602090048101928262000b61576000855562000bad565b82601f1062000b7c57805160ff191683800117855562000bad565b8280016001018555821562000bad579182015b8281111562000bac57825182559160200191906001019062000b8f565b5b50905062000bbc919062000cf5565b5090565b82805482825590600052602060002090810192821562000c14579160200282015b8281111562000c1357825182908051906020019062000c0292919062000b2f565b509160200191906001019062000be1565b5b50905062000c23919062000d14565b5090565b82805482825590600052602060002090810192821562000c7b579160200282015b8281111562000c7a57825182908051906020019062000c6992919062000b2f565b509160200191906001019062000c48565b5b50905062000c8a919062000d14565b5090565b82805482825590600052602060002090810192821562000ce2579160200282015b8281111562000ce157825182908051906020019062000cd092919062000b2f565b509160200191906001019062000caf565b5b50905062000cf1919062000d14565b5090565b5b8082111562000d1057600081600090555060010162000cf6565b5090565b5b8082111562000d38576000818162000d2e919062000d3c565b5060010162000d15565b5090565b50805462000d4a9062000e39565b6000825580601f1062000d5e575062000d7f565b601f01602090049060005260206000209081019062000d7e919062000cf5565b5b50565b600062000d8f8262000de7565b62000d9b818562000df2565b935062000dad81856020860162000e03565b62000db88162000e9e565b840191505092915050565b6000602082019050818103600083015262000ddf818462000d82565b905092915050565b600081519050919050565b600082825260208201905092915050565b60005b8381101562000e2357808201518184015260208101905062000e06565b8381111562000e33576000848401525b50505050565b6000600282049050600182168062000e5257607f821691505b6020821081141562000e695762000e6862000e6f565b5b50919050565b7f4e487b7100000000000000000000000000000000000000000000000000000000600052602260045260246000fd5b6000601f19601f8301169050919050565b613a8a8062000ebf6000396000f3fe608060405234801561001057600080fd5b50600436106101215760003560e01c806370a08231116100ad578063b88d4fde11610071578063b88d4fde14610340578063c575757a1461035c578063c87b56dd1461038c578063de9d132f146103bc578063e985e9c5146103c657610121565b806370a082311461028857806378a89567146102b857806395d89b41146102d6578063a22cb465146102f4578063b187301f1461031057610121565b806323b872dd116100f457806323b872dd146101c05780632de38d68146101dc57806342842e0e1461020c578063514dc8c6146102285780636352211e1461025857610121565b806301ffc9a71461012657806306fdde0314610156578063081812fc14610174578063095ea7b3146101a4575b600080fd5b610140600480360381019061013b9190612662565b6103f6565b60405161014d9190613300565b60405180910390f35b61015e6104d8565b60405161016b919061331b565b60405180910390f35b61018e600480360381019061018991906126b4565b61056a565b60405161019b9190613270565b60405180910390f35b6101be60048036038101906101b99190612626565b6105ef565b005b6101da60048036038101906101d59190612520565b610707565b005b6101f660048036038101906101f191906126b4565b610767565b604051610203919061331b565b60405180910390f35b61022660048036038101906102219190612520565b610885565b005b610242600480360381019061023d91906126b4565b6108a5565b60405161024f919061331b565b60405180910390f35b610272600480360381019061026d91906126b4565b6109c3565b60405161027f9190613270565b60405180910390f35b6102a2600480360381019061029d91906124bb565b610a75565b6040516102af919061357b565b60405180910390f35b6102c0610b2d565b6040516102cd919061357b565b60405180910390f35b6102de610b3e565b6040516102eb919061331b565b60405180910390f35b61030e600480360381019061030991906125ea565b610bd0565b005b61032a600480360381019061032591906126b4565b610d51565b604051610337919061331b565b60405180910390f35b61035a6004803603810190610355919061256f565b610e6f565b005b610376600480360381019061037191906126b4565b610ed1565b604051610383919061331b565b60405180910390f35b6103a660048036038101906103a191906126b4565b610fef565b6040516103b3919061331b565b60405180910390f35b6103c4611141565b005b6103e060048036038101906103db91906124e4565b61133b565b6040516103ed9190613300565b60405180910390f35b60007f80ac58cd000000000000000000000000000000000000000000000000000000007bffffffffffffffffffffffffffffffffffffffffffffffffffffffff1916827bffffffffffffffffffffffffffffffffffffffffffffffffffffffff191614806104c157507f5b5e139f000000000000000000000000000000000000000000000000000000007bffffffffffffffffffffffffffffffffffffffffffffffffffffffff1916827bffffffffffffffffffffffffffffffffffffffffffffffffffffffff1916145b806104d157506104d082611468565b5b9050919050565b6060600080546104e79061381a565b80601f01602080910402602001604051908101604052809291908181526020018280546105139061381a565b80156105605780601f1061053557610100808354040283529160200191610560565b820191906000526020600020905b81548152906001019060200180831161054357829003601f168201915b5050505050905090565b6000610575826114d2565b6105b4576040517f08c379a00000000000000000000000000000000000000000000000000000000081526004016105ab906134db565b60405180910390fd5b6004600083815260200190815260200160002060009054906101000a900473ffffffffffffffffffffffffffffffffffffffff169050919050565b60006105fa826109c3565b90508073ffffffffffffffffffffffffffffffffffffffff168373ffffffffffffffffffffffffffffffffffffffff16141561066b576040517f08c379a00000000000000000000000000000000000000000000000000000000081526004016106629061353b565b60405180910390fd5b8073ffffffffffffffffffffffffffffffffffffffff1661068a61153e565b73ffffffffffffffffffffffffffffffffffffffff1614806106b957506106b8816106b361153e565b61133b565b5b6106f8576040517f08c379a00000000000000000000000000000000000000000000000000000000081526004016106ef9061341b565b60405180910390fd5b6107028383611546565b505050565b61071861071261153e565b826115ff565b610757576040517f08c379a000000000000000000000000000000000000000000000000000000000815260040161074e9061355b565b60405180910390fd5b6107628383836116dd565b505050565b6060600061079b61077784611939565b604051602001610787919061320a565b604051602081830303815290604052611ae6565b9050600a80549050816107ae9190613895565b9050600a81815481106107ea577f4e487b7100000000000000000000000000000000000000000000000000000000600052603260045260246000fd5b9060005260206000200180546107ff9061381a565b80601f016020809104026020016040519081016040528092919081815260200182805461082b9061381a565b80156108785780601f1061084d57610100808354040283529160200191610878565b820191906000526020600020905b81548152906001019060200180831161085b57829003601f168201915b5050505050915050919050565b6108a083838360405180602001604052806000815250610e6f565b505050565b606060006108d96108b584611939565b6040516020016108c5919061324e565b604051602081830303815290604052611ae6565b9050600d80549050816108ec9190613895565b9050600d8181548110610928577f4e487b7100000000000000000000000000000000000000000000000000000000600052603260045260246000fd5b90600052602060002001805461093d9061381a565b80601f01602080910402602001604051908101604052809291908181526020018280546109699061381a565b80156109b65780601f1061098b576101008083540402835291602001916109b6565b820191906000526020600020905b81548152906001019060200180831161099957829003601f168201915b5050505050915050919050565b6000806002600084815260200190815260200160002060009054906101000a900473ffffffffffffffffffffffffffffffffffffffff169050600073ffffffffffffffffffffffffffffffffffffffff168173ffffffffffffffffffffffffffffffffffffffff161415610a6c576040517f08c379a0000000000000000000000000000000000000000000000000000000008152600401610a639061345b565b60405180910390fd5b80915050919050565b60008073ffffffffffffffffffffffffffffffffffffffff168273ffffffffffffffffffffffffffffffffffffffff161415610ae6576040517f08c379a0000000000000000000000000000000000000000000000000000000008152600401610add9061343b565b60405180910390fd5b600360008373ffffffffffffffffffffffffffffffffffffffff1673ffffffffffffffffffffffffffffffffffffffff168152602001908152602001600020549050919050565b6000610b396007611b19565b905090565b606060018054610b4d9061381a565b80601f0160208091040260200160405190810160405280929190818152602001828054610b799061381a565b8015610bc65780601f10610b9b57610100808354040283529160200191610bc6565b820191906000526020600020905b815481529060010190602001808311610ba957829003601f168201915b5050505050905090565b610bd861153e565b73ffffffffffffffffffffffffffffffffffffffff168273ffffffffffffffffffffffffffffffffffffffff161415610c46576040517f08c379a0000000000000000000000000000000000000000000000000000000008152600401610c3d906133db565b60405180910390fd5b8060056000610c5361153e565b73ffffffffffffffffffffffffffffffffffffffff1673ffffffffffffffffffffffffffffffffffffffff16815260200190815260200160002060008473ffffffffffffffffffffffffffffffffffffffff1673ffffffffffffffffffffffffffffffffffffffff16815260200190815260200160002060006101000a81548160ff0219169083151502179055508173ffffffffffffffffffffffffffffffffffffffff16610d0061153e565b73ffffffffffffffffffffffffffffffffffffffff167f17307eab39ab6107e8899845ad3d59bd9653f200f220920489ca2b5937696c3183604051610d459190613300565b60405180910390a35050565b60606000610d85610d6184611939565b604051602001610d7191906131a3565b604051602081830303815290604052611ae6565b9050600b8054905081610d989190613895565b9050600b8181548110610dd4577f4e487b7100000000000000000000000000000000000000000000000000000000600052603260045260246000fd5b906000526020600020018054610de99061381a565b80601f0160208091040260200160405190810160405280929190818152602001828054610e159061381a565b8015610e625780601f10610e3757610100808354040283529160200191610e62565b820191906000526020600020905b815481529060010190602001808311610e4557829003601f168201915b5050505050915050919050565b610e80610e7a61153e565b836115ff565b610ebf576040517f08c379a0000000000000000000000000000000000000000000000000000000008152600401610eb69061355b565b60405180910390fd5b610ecb84848484611b27565b50505050565b60606000610f05610ee184611939565b604051602001610ef19190613181565b604051602081830303815290604052611ae6565b9050600c8054905081610f189190613895565b9050600c8181548110610f54577f4e487b7100000000000000000000000000000000000000000000000000000000600052603260045260246000fd5b906000526020600020018054610f699061381a565b80601f0160208091040260200160405190810160405280929190818152602001828054610f959061381a565b8015610fe25780601f10610fb757610100808354040283529160200191610fe2565b820191906000526020600020905b815481529060010190602001808311610fc557829003601f168201915b5050505050915050919050565b6060610ffa826114d2565b611039576040517f08c379a0000000000000000000000000000000000000000000000000000000008152600401611030906134bb565b60405180910390fd5b60006006600084815260200190815260200160002080546110599061381a565b80601f01602080910402602001604051908101604052809291908181526020018280546110859061381a565b80156110d25780601f106110a7576101008083540402835291602001916110d2565b820191906000526020600020905b8154815290600101906020018083116110b557829003601f168201915b5050505050905060006110e3611b83565b90506000815114156110f957819250505061113c565b60008251111561112e5780826040516020016111169291906130e3565b6040516020818303038152906040529250505061113c565b61113784611b9a565b925050505b919050565b600061114d6007611b19565b9050600061115a82610767565b9050600061116783610d51565b9050600061117484610ed1565b9050600083838360405160200161118d93929190613107565b604051602081830303815290604052905060006111a9866108a5565b905060006008826009856040516020016111c69493929190613138565b6040516020818303038152906040529050600061120b846111e684611c41565b6040516020016111f79291906131c5565b604051602081830303815290604052611c41565b9050600081604051602001611220919061322c565b604051602081830303815290604052905061126f6040518060400160405280601581526020017f0a2d2d2d2d2d2d2d2d2d2d2d2d2d2d2d2d2d2d2d2d00000000000000000000008152506113cf565b611278816113cf565b6112b66040518060400160405280601581526020017f2d2d2d2d2d2d2d2d2d2d2d2d2d2d2d2d2d2d2d2d0a00000000000000000000008152506113cf565b6112c0338a611dff565b6112ca8982611e1d565b6112d46007611e91565b6112f76040518060600160405280602581526020016139f0602591398a33611ea7565b7febb98688741ffa4c7589bf325de30cf7becb63de567842e1ccdb6cb949fdc82c338a6040516113289291906132d7565b60405180910390a1505050505050505050565b6000600560008473ffffffffffffffffffffffffffffffffffffffff1673ffffffffffffffffffffffffffffffffffffffff16815260200190815260200160002060008373ffffffffffffffffffffffffffffffffffffffff1673ffffffffffffffffffffffffffffffffffffffff16815260200190815260200160002060009054906101000a900460ff16905092915050565b611465816040516024016113e3919061331b565b6040516020818303038152906040527f41304fac000000000000000000000000000000000000000000000000000000007bffffffffffffffffffffffffffffffffffffffffffffffffffffffff19166020820180517bffffffffffffffffffffffffffffffffffffffffffffffffffffffff8381831617835250505050611f46565b50565b60007f01ffc9a7000000000000000000000000000000000000000000000000000000007bffffffffffffffffffffffffffffffffffffffffffffffffffffffff1916827bffffffffffffffffffffffffffffffffffffffffffffffffffffffff1916149050919050565b60008073ffffffffffffffffffffffffffffffffffffffff166002600084815260200190815260200160002060009054906101000a900473ffffffffffffffffffffffffffffffffffffffff1673ffffffffffffffffffffffffffffffffffffffff1614159050919050565b600033905090565b816004600083815260200190815260200160002060006101000a81548173ffffffffffffffffffffffffffffffffffffffff021916908373ffffffffffffffffffffffffffffffffffffffff160217905550808273ffffffffffffffffffffffffffffffffffffffff166115b9836109c3565b73ffffffffffffffffffffffffffffffffffffffff167f8c5be1e5ebec7d5bd14f71427d1e84f3dd0314c0f7b2291e5b200ac8c7c3b92560405160405180910390a45050565b600061160a826114d2565b611649576040517f08c379a0000000000000000000000000000000000000000000000000000000008152600401611640906133fb565b60405180910390fd5b6000611654836109c3565b90508073ffffffffffffffffffffffffffffffffffffffff168473ffffffffffffffffffffffffffffffffffffffff1614806116c357508373ffffffffffffffffffffffffffffffffffffffff166116ab8461056a565b73ffffffffffffffffffffffffffffffffffffffff16145b806116d457506116d3818561133b565b5b91505092915050565b8273ffffffffffffffffffffffffffffffffffffffff166116fd826109c3565b73ffffffffffffffffffffffffffffffffffffffff1614611753576040517f08c379a000000000000000000000000000000000000000000000000000000000815260040161174a906134fb565b60405180910390fd5b600073ffffffffffffffffffffffffffffffffffffffff168273ffffffffffffffffffffffffffffffffffffffff1614156117c3576040517f08c379a00000000000000000000000000000000000000000000000000000000081526004016117ba906133bb565b60405180910390fd5b6117ce838383611f6f565b6117d9600082611546565b6001600360008573ffffffffffffffffffffffffffffffffffffffff1673ffffffffffffffffffffffffffffffffffffffff16815260200190815260200160002060008282546118299190613730565b925050819055506001600360008473ffffffffffffffffffffffffffffffffffffffff1673ffffffffffffffffffffffffffffffffffffffff1681526020019081526020016000206000828254611880919061364f565b92505081905550816002600083815260200190815260200160002060006101000a81548173ffffffffffffffffffffffffffffffffffffffff021916908373ffffffffffffffffffffffffffffffffffffffff160217905550808273ffffffffffffffffffffffffffffffffffffffff168473ffffffffffffffffffffffffffffffffffffffff167fddf252ad1be2c89b69c2b068fc378daa952ba7f163c4a11628f55a4df523b3ef60405160405180910390a4505050565b60606000821415611981576040518060400160405280600181526020017f30000000000000000000000000000000000000000000000000000000000000008152509050611ae1565b600082905060005b600082146119b357808061199c9061384c565b915050600a826119ac91906136a5565b9150611989565b60008167ffffffffffffffff8111156119f5577f4e487b7100000000000000000000000000000000000000000000000000000000600052604160045260246000fd5b6040519080825280601f01601f191660200182016040528015611a275781602001600182028036833780820191505090505b5090505b60008514611ada57600182611a409190613730565b9150600a85611a4f9190613895565b6030611a5b919061364f565b60f81b818381518110611a97577f4e487b7100000000000000000000000000000000000000000000000000000000600052603260045260246000fd5b60200101907effffffffffffffffffffffffffffffffffffffffffffffffffffffffffffff1916908160001a905350600a85611ad391906136a5565b9450611a2b565b8093505050505b919050565b600081604051602001611af991906130cc565b6040516020818303038152906040528051906020012060001c9050919050565b600081600001549050919050565b611b328484846116dd565b611b3e84848484611f74565b611b7d576040517f08c379a0000000000000000000000000000000000000000000000000000000008152600401611b749061337b565b60405180910390fd5b50505050565b606060405180602001604052806000815250905090565b6060611ba5826114d2565b611be4576040517f08c379a0000000000000000000000000000000000000000000000000000000008152600401611bdb9061351b565b60405180910390fd5b6000611bee611b83565b90506000815111611c0e5760405180602001604052806000815250611c39565b80611c1884611939565b604051602001611c299291906130e3565b6040516020818303038152906040525b915050919050565b60606000825190506000811415611c6a5760405180602001604052806000815250915050611dfa565b60006003600283611c7b919061364f565b611c8591906136a5565b6004611c9191906136d6565b90506000602082611ca2919061364f565b67ffffffffffffffff811115611ce1577f4e487b7100000000000000000000000000000000000000000000000000000000600052604160045260246000fd5b6040519080825280601f01601f191660200182016040528015611d135781602001600182028036833780820191505090505b5090506000604051806060016040528060408152602001613a15604091399050600181016020830160005b86811015611db75760038101905062ffffff818a015116603f8160121c168401518060081b905060ff603f83600c1c1686015116810190508060081b905060ff603f8360061c1686015116810190508060081b905060ff603f831686015116810190508060e01b90508084526004840193505050611d3e565b506003860660018114611dd15760028114611de157611dec565b613d3d60f01b6002830352611dec565b603d60f81b60018303525b508484525050819450505050505b919050565b611e1982826040518060200160405280600081525061210b565b5050565b611e26826114d2565b611e65576040517f08c379a0000000000000000000000000000000000000000000000000000000008152600401611e5c9061347b565b60405180910390fd5b80600660008481526020019081526020016000209080519060200190611e8c929190612347565b505050565b6001816000016000828254019250508190555050565b611f41838383604051602401611ebf9392919061333d565b6040516020818303038152906040527fe3849f79000000000000000000000000000000000000000000000000000000007bffffffffffffffffffffffffffffffffffffffffffffffffffffffff19166020820180517bffffffffffffffffffffffffffffffffffffffffffffffffffffffff8381831617835250505050611f46565b505050565b60008151905060006a636f6e736f6c652e6c6f679050602083016000808483855afa5050505050565b505050565b6000611f958473ffffffffffffffffffffffffffffffffffffffff16612166565b156120fe578373ffffffffffffffffffffffffffffffffffffffff1663150b7a02611fbe61153e565b8786866040518563ffffffff1660e01b8152600401611fe0949392919061328b565b602060405180830381600087803b158015611ffa57600080fd5b505af192505050801561202b57506040513d601f19601f82011682018060405250810190612028919061268b565b60015b6120ae573d806000811461205b576040519150601f19603f3d011682016040523d82523d6000602084013e612060565b606091505b506000815114156120a6576040517f08c379a000000000000000000000000000000000000000000000000000000000815260040161209d9061337b565b60405180910390fd5b805181602001fd5b63150b7a0260e01b7bffffffffffffffffffffffffffffffffffffffffffffffffffffffff1916817bffffffffffffffffffffffffffffffffffffffffffffffffffffffff191614915050612103565b600190505b949350505050565b6121158383612179565b6121226000848484611f74565b612161576040517f08c379a00000000000000000000000000000000000000000000000000000000081526004016121589061337b565b60405180910390fd5b505050565b600080823b905060008111915050919050565b600073ffffffffffffffffffffffffffffffffffffffff168273ffffffffffffffffffffffffffffffffffffffff1614156121e9576040517f08c379a00000000000000000000000000000000000000000000000000000000081526004016121e09061349b565b60405180910390fd5b6121f2816114d2565b15612232576040517f08c379a00000000000000000000000000000000000000000000000000000000081526004016122299061339b565b60405180910390fd5b61223e60008383611f6f565b6001600360008473ffffffffffffffffffffffffffffffffffffffff1673ffffffffffffffffffffffffffffffffffffffff168152602001908152602001600020600082825461228e919061364f565b92505081905550816002600083815260200190815260200160002060006101000a81548173ffffffffffffffffffffffffffffffffffffffff021916908373ffffffffffffffffffffffffffffffffffffffff160217905550808273ffffffffffffffffffffffffffffffffffffffff16600073ffffffffffffffffffffffffffffffffffffffff167fddf252ad1be2c89b69c2b068fc378daa952ba7f163c4a11628f55a4df523b3ef60405160405180910390a45050565b8280546123539061381a565b90600052602060002090601f01602090048101928261237557600085556123bc565b82601f1061238e57805160ff19168380011785556123bc565b828001600101855582156123bc579182015b828111156123bb5782518255916020019190600101906123a0565b5b5090506123c991906123cd565b5090565b5b808211156123e65760008160009055506001016123ce565b5090565b60006123fd6123f8846135c7565b613596565b90508281526020810184848401111561241557600080fd5b6124208482856137d8565b509392505050565b60008135905061243781613993565b92915050565b60008135905061244c816139aa565b92915050565b600081359050612461816139c1565b92915050565b600081519050612476816139c1565b92915050565b600082601f83011261248d57600080fd5b813561249d8482602086016123ea565b91505092915050565b6000813590506124b5816139d8565b92915050565b6000602082840312156124cd57600080fd5b60006124db84828501612428565b91505092915050565b600080604083850312156124f757600080fd5b600061250585828601612428565b925050602061251685828601612428565b9150509250929050565b60008060006060848603121561253557600080fd5b600061254386828701612428565b935050602061255486828701612428565b9250506040612565868287016124a6565b9150509250925092565b6000806000806080858703121561258557600080fd5b600061259387828801612428565b94505060206125a487828801612428565b93505060406125b5878288016124a6565b925050606085013567ffffffffffffffff8111156125d257600080fd5b6125de8782880161247c565b91505092959194509250565b600080604083850312156125fd57600080fd5b600061260b85828601612428565b925050602061261c8582860161243d565b9150509250929050565b6000806040838503121561263957600080fd5b600061264785828601612428565b9250506020612658858286016124a6565b9150509250929050565b60006020828403121561267457600080fd5b600061268284828501612452565b91505092915050565b60006020828403121561269d57600080fd5b60006126ab84828501612467565b91505092915050565b6000602082840312156126c657600080fd5b60006126d4848285016124a6565b91505092915050565b6126e681613764565b82525050565b6126f581613776565b82525050565b60006127068261360c565b6127108185613622565b93506127208185602086016137e7565b61272981613982565b840191505092915050565b600061273f82613617565b6127498185613633565b93506127598185602086016137e7565b61276281613982565b840191505092915050565b600061277882613617565b6127828185613644565b93506127928185602086016137e7565b80840191505092915050565b600081546127ab8161381a565b6127b58186613644565b945060018216600081146127d057600181146127e157612814565b60ff19831686528186019350612814565b6127ea856135f7565b60005b8381101561280c578154818901526001820191506020810190506127ed565b838801955050505b50505092915050565b600061282a603283613633565b91507f4552433732313a207472616e7366657220746f206e6f6e20455243373231526560008301527f63656976657220696d706c656d656e74657200000000000000000000000000006020830152604082019050919050565b6000612890601c83613633565b91507f4552433732313a20746f6b656e20616c7265616479206d696e746564000000006000830152602082019050919050565b60006128d0600a83613644565b91507f54484952445f574f5244000000000000000000000000000000000000000000006000830152600a82019050919050565b6000612910602483613633565b91507f4552433732313a207472616e7366657220746f20746865207a65726f2061646460008301527f72657373000000000000000000000000000000000000000000000000000000006020830152604082019050919050565b6000612976601983613633565b91507f4552433732313a20617070726f766520746f2063616c6c6572000000000000006000830152602082019050919050565b60006129b6606383613644565b91507f222c20226465736372697074696f6e223a20224120686967686c79206163636c60008301527f61696d656420636f6c6c656374696f6e206f6620737175617265732e222c202260208301527f696d616765223a2022646174613a696d6167652f7376672b786d6c3b6261736560408301527f36342c00000000000000000000000000000000000000000000000000000000006060830152606382019050919050565b6000612a68600b83613644565b91507f5345434f4e445f574f52440000000000000000000000000000000000000000006000830152600b82019050919050565b6000612aa8602c83613633565b91507f4552433732313a206f70657261746f7220717565727920666f72206e6f6e657860008301527f697374656e7420746f6b656e00000000000000000000000000000000000000006020830152604082019050919050565b6000612b0e600d83613644565b91507f3c2f746578743e3c2f7376673e000000000000000000000000000000000000006000830152600d82019050919050565b6000612b4e603883613633565b91507f4552433732313a20617070726f76652063616c6c6572206973206e6f74206f7760008301527f6e6572206e6f7220617070726f76656420666f7220616c6c00000000000000006020830152604082019050919050565b6000612bb4602a83613633565b91507f4552433732313a2062616c616e636520717565727920666f7220746865207a6560008301527f726f2061646472657373000000000000000000000000000000000000000000006020830152604082019050919050565b6000612c1a602983613633565b91507f4552433732313a206f776e657220717565727920666f72206e6f6e657869737460008301527f656e7420746f6b656e00000000000000000000000000000000000000000000006020830152604082019050919050565b6000612c80602e83613633565b91507f45524337323155524953746f726167653a2055524920736574206f66206e6f6e60008301527f6578697374656e7420746f6b656e0000000000000000000000000000000000006020830152604082019050919050565b6000612ce6600283613644565b91507f227d0000000000000000000000000000000000000000000000000000000000006000830152600282019050919050565b6000612d26602083613633565b91507f4552433732313a206d696e7420746f20746865207a65726f20616464726573736000830152602082019050919050565b6000612d66603183613633565b91507f45524337323155524953746f726167653a2055524920717565727920666f722060008301527f6e6f6e6578697374656e7420746f6b656e0000000000000000000000000000006020830152604082019050919050565b6000612dcc602c83613633565b91507f4552433732313a20617070726f76656420717565727920666f72206e6f6e657860008301527f697374656e7420746f6b656e00000000000000000000000000000000000000006020830152604082019050919050565b6000612e32602983613633565b91507f4552433732313a207472616e73666572206f6620746f6b656e2074686174206960008301527f73206e6f74206f776e00000000000000000000000000000000000000000000006020830152604082019050919050565b6000612e98602f83613633565b91507f4552433732314d657461646174613a2055524920717565727920666f72206e6f60008301527f6e6578697374656e7420746f6b656e00000000000000000000000000000000006020830152604082019050919050565b6000612efe600a83613644565b91507f7b226e616d65223a2022000000000000000000000000000000000000000000006000830152600a82019050919050565b6000612f3e602183613633565b91507f4552433732313a20617070726f76616c20746f2063757272656e74206f776e6560008301527f72000000000000000000000000000000000000000000000000000000000000006020830152604082019050919050565b6000612fa4600a83613644565b91507f46495253545f574f5244000000000000000000000000000000000000000000006000830152600a82019050919050565b6000612fe4601d83613644565b91507f646174613a6170706c69636174696f6e2f6a736f6e3b6261736536342c0000006000830152601d82019050919050565b6000613024603183613633565b91507f4552433732313a207472616e736665722063616c6c6572206973206e6f74206f60008301527f776e6572206e6f7220617070726f7665640000000000000000000000000000006020830152604082019050919050565b600061308a600583613644565b91507f434f4c4f520000000000000000000000000000000000000000000000000000006000830152600582019050919050565b6130c6816137ce565b82525050565b60006130d8828461276d565b915081905092915050565b60006130ef828561276d565b91506130fb828461276d565b91508190509392505050565b6000613113828661276d565b915061311f828561276d565b915061312b828461276d565b9150819050949350505050565b6000613144828761279e565b9150613150828661276d565b915061315c828561279e565b9150613168828461276d565b915061317382612b01565b915081905095945050505050565b600061318c826128c3565b9150613198828461276d565b915081905092915050565b60006131ae82612a5b565b91506131ba828461276d565b915081905092915050565b60006131d082612ef1565b91506131dc828561276d565b91506131e7826129a9565b91506131f3828461276d565b91506131fe82612cd9565b91508190509392505050565b600061321582612f97565b9150613221828461276d565b915081905092915050565b600061323782612fd7565b9150613243828461276d565b915081905092915050565b60006132598261307d565b9150613265828461276d565b915081905092915050565b600060208201905061328560008301846126dd565b92915050565b60006080820190506132a060008301876126dd565b6132ad60208301866126dd565b6132ba60408301856130bd565b81810360608301526132cc81846126fb565b905095945050505050565b60006040820190506132ec60008301856126dd565b6132f960208301846130bd565b9392505050565b600060208201905061331560008301846126ec565b92915050565b600060208201905081810360008301526133358184612734565b905092915050565b600060608201905081810360008301526133578186612734565b905061336660208301856130bd565b61337360408301846126dd565b949350505050565b600060208201905081810360008301526133948161281d565b9050919050565b600060208201905081810360008301526133b481612883565b9050919050565b600060208201905081810360008301526133d481612903565b9050919050565b600060208201905081810360008301526133f481612969565b9050919050565b6000602082019050818103600083015261341481612a9b565b9050919050565b6000602082019050818103600083015261343481612b41565b9050919050565b6000602082019050818103600083015261345481612ba7565b9050919050565b6000602082019050818103600083015261347481612c0d565b9050919050565b6000602082019050818103600083015261349481612c73565b9050919050565b600060208201905081810360008301526134b481612d19565b9050919050565b600060208201905081810360008301526134d481612d59565b9050919050565b600060208201905081810360008301526134f481612dbf565b9050919050565b6000602082019050818103600083015261351481612e25565b9050919050565b6000602082019050818103600083015261353481612e8b565b9050919050565b6000602082019050818103600083015261355481612f31565b9050919050565b6000602082019050818103600083015261357481613017565b9050919050565b600060208201905061359060008301846130bd565b92915050565b6000604051905081810181811067ffffffffffffffff821117156135bd576135bc613953565b5b8060405250919050565b600067ffffffffffffffff8211156135e2576135e1613953565b5b601f19601f8301169050602081019050919050565b60008190508160005260206000209050919050565b600081519050919050565b600081519050919050565b600082825260208201905092915050565b600082825260208201905092915050565b600081905092915050565b600061365a826137ce565b9150613665836137ce565b9250827fffffffffffffffffffffffffffffffffffffffffffffffffffffffffffffffff0382111561369a576136996138c6565b5b828201905092915050565b60006136b0826137ce565b91506136bb836137ce565b9250826136cb576136ca6138f5565b5b828204905092915050565b60006136e1826137ce565b91506136ec836137ce565b9250817fffffffffffffffffffffffffffffffffffffffffffffffffffffffffffffffff0483118215151615613725576137246138c6565b5b828202905092915050565b600061373b826137ce565b9150613746836137ce565b925082821015613759576137586138c6565b5b828203905092915050565b600061376f826137ae565b9050919050565b60008115159050919050565b60007fffffffff0000000000000000000000000000000000000000000000000000000082169050919050565b600073ffffffffffffffffffffffffffffffffffffffff82169050919050565b6000819050919050565b82818337600083830152505050565b60005b838110156138055780820151818401526020810190506137ea565b83811115613814576000848401525b50505050565b6000600282049050600182168061383257607f821691505b6020821081141561384657613845613924565b5b50919050565b6000613857826137ce565b91507fffffffffffffffffffffffffffffffffffffffffffffffffffffffffffffffff82141561388a576138896138c6565b5b600182019050919050565b60006138a0826137ce565b91506138ab836137ce565b9250826138bb576138ba6138f5565b5b828206905092915050565b7f4e487b7100000000000000000000000000000000000000000000000000000000600052601160045260246000fd5b7f4e487b7100000000000000000000000000000000000000000000000000000000600052601260045260246000fd5b7f4e487b7100000000000000000000000000000000000000000000000000000000600052602260045260246000fd5b7f4e487b7100000000000000000000000000000000000000000000000000000000600052604160045260246000fd5b6000601f19601f8301169050919050565b61399c81613764565b81146139a757600080fd5b50565b6139b381613776565b81146139be57600080fd5b50565b6139ca81613782565b81146139d557600080fd5b50565b6139e1816137ce565b81146139ec57600080fd5b5056fe416e204e465420772f20494420257320686173206265656e206d696e74656420746f2025734142434445464748494a4b4c4d4e4f505152535455565758595a6162636465666768696a6b6c6d6e6f707172737475767778797a303132333435363738392b2fa264697066735822122058f34bed6a30b392f1f1c0efbeef39395bc314a1c34cfd86d1863fe2d3b2343264736f6c634300080000333c73766720786d6c6e733d27687474703a2f2f7777772e77332e6f72672f323030302f73766727207072657365727665417370656374526174696f3d27784d696e594d696e206d656574272076696577426f783d273020302033353020333530273e3c7374796c653e2e62617365207b2066696c6c3a2077686974653b20666f6e742d66616d696c793a2073657269663b20666f6e742d73697a653a20323470783b207d3c2f7374796c653e3c726563742077696474683d273130302527206865696768743d2731303025272066696c6c3d27272f3e3c7465787420783d273530252720793d273530252720636c6173733d27626173652720646f6d696e616e742d626173656c696e653d276d6964646c652720746578742d616e63686f723d276d6964646c65273e",
  "linkReferences": {},
  "deployedLinkReferences": {}
}